:100000000C9475000C949D000C949D000C949D0024
:100010000C949D000C949D000C949D000C949D00EC
:100020000C949D000C949D000C949D000C949D00DC
:100030000C949D000C949D000C949D000C949D00CC
:100040000C94E1060C949D000C94AF060C94890668
:100050000C949D000C949D000C949D000C949D00AC
:100060000C949D000C949D000000000024002700CB
:100070002A00526563696576656420626961730070
:10008000526563696576656420776569676874732E
:100090000052656369657665642077656967687491
:1000A000730000000000250028002B000404040455
:1000B0000404040402020202020203030303030312
:1000C00001020408102040800102040810200102EF
:1000D00004081020000000080002010000030407CB
:1000E0000000000000000000130911241FBECFEF24
:1000F000D8E0DEBFCDBF11E0A0E0B1E0E2EFF7E174
:1001000002C005900D92AC31B107D9F721E0ACE106
:10011000B1E001C01D92AA3CB207E1F710E0C5E7CB
:10012000D0E004C02197FE010E94E30BC437D10741
:10013000C9F70E942B070C94F70B0C940000E1EE1A
:10014000F0E08491EDECF0E09491E9EBF0E0E491E3
:10015000EE23B1F1882339F1833091F038F4813006
:10016000A9F0823001F584B58F7D12C0873091F0FF
:100170008830A1F08430B9F4809180008F7D03C075
:10018000809180008F77809380000DC084B58F7739
:1001900084BD09C08091B0008F7703C08091B0000A
:1001A0008F7D8093B000F0E0EE0FFF1FEE55FF4F04
:1001B000A591B4918FB7F894EC919E2B9C938FBF2F
:1001C00008950F931F93CF93DF938B01D82FC92FDF
:1001D00020E030E0A9010E94BC0B181624F000E0DA
:1001E00010E0D0E0C0E0B8018D2F9C2FDF91CF91BF
:1001F0001F910F910895CF92DF92EF92FF920F938C
:100200001F93CF93DF936C017A018B01C0E0D0E0A4
:10021000CE15DF0589F0D8016D918D01D601ED91E4
:10022000FC910190F081E02DC6010995892B11F414
:100230007E0102C02196ECCFC701DF91CF911F91C3
:100240000F91FF90EF90DF90CF900895089580E098
:1002500090E00895FC01538D448D252F30E0842FCC
:1002600090E0821B930B541710F0CF9608950197DE
:100270000895FC01918D828D981761F0828DDF01C8
:10028000A80FB11D5D968C91928D9F5F9F73928F89
:1002900090E008958FEF9FEF0895FC01918D828D7E
:1002A000981731F0828DE80FF11D858D90E008954B
:1002B0008FEF9FEF0895FC01918D228D892F90E0A3
:1002C000805C9F4F821B91098F739927089589E263
:1002D00091E00E945B0121E0892B09F420E0822F4C
:1002E0000895FC01848DDF01A80FB11DA35ABF4FF3
:1002F0002C91848D90E001968F739927848FA68925
:10030000B7892C93A089B1898C9180648C93938D4B
:10031000848D981306C00288F389E02D80818F7D3B
:1003200080830895EF92FF920F931F93CF93DF93F3
:10033000EC0181E0888F9B8D8C8D981305C0E88936
:10034000F989808185FD24C0F62E0B8D10E00F5FAA
:100350001F4F0F731127E02E8C8DE8120CC00FB6C3
:1003600007FCFACFE889F989808185FFF5CFCE01B6
:100370000E947101F1CF8B8DFE01E80FF11DE35A50
:10038000FF4FF0820B8FEA89FB898081806207C072
:10039000EE89FF896083E889F989808180648083A0
:1003A00081E090E0DF91CF911F910F91FF90EF904E
:1003B0000895CF93DF93EC01888D8823C9F0EA89F3
:1003C000FB89808185FD05C0A889B9898C9186FD4E
:1003D0000FC00FB607FCF5CF808185FFF2CFA8894B
:1003E000B9898C9185FFEDCFCE010E947101E7CFD5
:1003F000DF91CF91089580E090E0892B29F00E9451
:10040000670181110C94000008952FB7F894609152
:1004100025017091260180912701909128012FBF1D
:1004200008958F929F92AF92BF92EF92FF920F9397
:100430001F93CF93DF937B018C01C0E0D0E0CE15FA
:10044000DF05C9F10E94050260933101709332010A
:100450008093330190933401E0912901F0912A01B6
:100460000284F385E02D89E291E0099597FF1EC093
:100470000E9405028090310190903201A0903301DA
:10048000B0903401DC01CB0188199909AA09BB0994
:1004900080902D0190902E01A0902F01B0903001FE
:1004A00088159905AA05BB05B8F205C0F801819326
:1004B0008F012196C4CFCE01DF91CF911F910F9173
:1004C000FF90EF90BF90AF909F908F900895DC01C8
:1004D00077FD26C012968D919C9113976817790726
:1004E000FCF457FD1DC014968D919C9115974817EB
:1004F0005907B4F4689FF001699FF00D789FF00DE3
:1005000011244E0F5F1F440F551F440F551FED91CF
:10051000FC91E40FF51F60817181828193810895C0
:1005200060911C0170911D0180911E0190911F012D
:100530000895CF93DF9300D0CDB7DEB72091C601E9
:100540003091C701CE0101962115310519F48A5C5D
:10055000914002C0821B930B9A83898389819A817F
:100560000F900F90DF91CF910895009769F0FC01F3
:1005700001900020E9F73197AF01481B590BBC01EE
:1005800089E291E00C94FB0080E090E008958F9266
:100590009F92AF92BF920F931F93CF93DF93CDB7EC
:1005A000DEB7A1970FB6F894DEBF0FBECDBF19A27C
:1005B000423008F44AE08E010F5D1F4F842E912CCB
:1005C000A12CB12CA50194010E94C10BE62FB90109
:1005D000CA0101501109EA3014F4E05D01C0E95C80
:1005E000D801EC93232B242B252B61F7C8010E9403
:1005F000B502A1960FB6F894DEBF0FBECDBFDF9156
:10060000CF911F910F91BF90AF909F908F900895C1
:100610000F931F93CF93DF938C01C0E0D0E0F801DC
:10062000EC0FFD1F6491662371F0E0912901F091B8
:100630002A010190F081E02D89E291E00995892B52
:1006400011F02196ECCF88E191E00E94B5028C0F69
:100650009D1FDF91CF911F910F910895CF92DF924F
:10066000EF92FF92CF93DF936C01990FEE08FF0892
:10067000F7FE1AC0E0912901F0912A010190F08162
:10068000E02D6DE289E291E00995EC01662777277C
:10069000CB016C197D098E099F094AE00E94C702AF
:1006A0007C01EC0EFD1E06C04AE0C701B6010E94A7
:1006B000C7027C0188E191E00E94B5028E0D9F1D6A
:1006C000DF91CF91FF90EF90DF90CF9008950E943F
:1006D000E90B6F927F928F929F92AF92BF92CF92CF
:1006E000DF92EF92FF920F931F93CF93DF9300D08F
:1006F00000D0CDB7DEB78C01CDB6DEB61C821B8232
:100700001A82198262E070E0CE0103960E94110203
:1007100062E070E0CE0101960E9411022B813C81C3
:1007200089819A81289F3001299F700C389F700C15
:100730001124C301880F991F880F991F2DB73EB749
:10074000281B390B0FB6F8943EBF0FBE2DBF8DB7D7
:100750009EB701967C014C01A12CB12CA614B704C4
:1007600064F464E070E0C4010E9411029FEFA91AD2
:10077000B90AE4E08E0E911CF1CF89819A812B8118
:100780003C81F8013383228395838483289F500121
:10079000299FB00C389FB00C1124B782A682C501E6
:1007A000880F991F880F991F0E944009F8019183B3
:1007B0008083892B21F4AB2811F00E949F00F8015F
:1007C00046815781440F551F440F551FB701808143
:1007D00091810E94EE0BC8010FB6F894DEBE0FBEE9
:1007E000CDBE0F900F900F900F90DF91CF911F9182
:1007F0000F91FF90EF90DF90CF90BF90AF909F90C0
:100800008F907F906F9008950F931F93CF93DF93F6
:10081000EC017B836A835D834C83649F8001659FC9
:10082000100D749F100D11241F830E83CA01880FB1
:10083000991F880F991F9C01269FC001279F900D2B
:10084000369F900D11240E94400999838883892B3B
:1008500041F4012B31F0DF91CF911F910F910C9456
:100860009F00DF91CF911F910F910895EF92FF921A
:100870000F931F93CF93DF93EC018B01FB01228138
:1008800033813B832A83848195819D838C83289F38
:100890007001299FF00C389FF00C1124FF82EE822A
:1008A000C701880F991F880F991F0E9440099983DB
:1008B0008883892B21F4EF2811F00E949F004E813C
:1008C0005F81440F551F440F551FF80160817181EE
:1008D00088819981DF91CF911F910F91FF90EF90C7
:1008E0000C94EE0BEF92FF920F931F93CF93DF9335
:1008F000EC018B0188819981009711F00E94D50944
:10090000F801228133813B832A83848195819D83F1
:100910008C83289F7001299FF00C389FF00C1124C4
:10092000FF82EE82C701880F991F880F991F0E94CE
:10093000400999838883892B21F4EF2811F00E94C4
:100940009F004E815F81440F551F440F551FF801D2
:1009500060817181888199810E94EE0BCE01DF91C7
:10096000CF911F910F91FF90EF900895FC0180812E
:100970009181009711F00C94D50908952F923F9220
:100980004F925F926F927F928F929F92AF92BF929F
:10099000CF92DF92EF92FF920F931F93CF93DF934B
:1009A000CDB7DEB7E0970FB6F894DEBF0FBECDBF70
:1009B0001C017AA369A3DC0111961C921E92179662
:1009C0001C921E92169715961C921E9214971396BF
:1009D0001C921E921297BA010E947204E9A1FAA118
:1009E000FA8FE98F1C8E1B8EA9A1BAA19C968D91BE
:1009F0009C919D97EB8DFC8DE817F9070CF06FC16A
:100A0000A98DBA8D54960D90BC91A02DBEA3ADA317
:100A1000F10124813581A98DBA8D16968D919C9115
:100A200017972817390749F040E050E060E070E080
:100A3000CE0141960E940404A6C0E98DFA8D40853E
:100A40005185D10112966D917C911397CE0101963B
:100A50000E940404EB81FC81FAA7E9A72D813E8165
:100A60003CA32BA389819A819CA78BA7220F331FBC
:100A7000220F331F3EA72DA718A21F8EC12CD12CE9
:100A8000E6E1AB8DBC8DEA9FC001EB9F900D112478
:100A9000049629A13AA1280F391F38AB2FA7A9A581
:100AA000BAA5CA16DB060CF063C01E8E1D8E00E0D0
:100AB00010E0EBA1FCA10E171F070CF04DC0D101F7
:100AC00014960D90BC91A02DB8A7AFA3E12CF12CEA
:100AD000812C912C5401EFA1F8A5EE16FF06FCF431
:100AE000A701B601C1010E9467022B013C01A801C8
:100AF000B7018FA598A90E9467029B01AC01C301B1
:100B0000B2010E94910A9B01AC01C501B4010E948F
:100B1000500B4B015C01BFEFEB1AFB0ADCCFD7FC9B
:100B20000DC017FD0BC0ED8DFE8D2F8D38A1E20F8E
:100B3000F31F8BA59CA5E80FF91F02C0ECE1F1E0C3
:100B400080829182A282B3820F5F1F4FAD8DBE8DD6
:100B50001496BE8FAD8FADCFFFEFCF1ADF0A2F8D6A
:100B600038A18DA59EA5280F391F38A32F8F97CFA9
:100B7000BE016F5F7F4FCE0141960E943604CE01C9
:100B800001960E94B6044D895E896B897C89CE01ED
:100B900001960E940404E98DFA8D828893888F89DA
:100BA000988D8816990659F44F805884C980DA8048
:100BB00069887A88E12CF12C00E010E02AC040E03E
:100BC00050E060E070E0CE0109960E94040432C05B
:100BD000560117FF22C0D3016D917D918D919D919A
:100BE0003D01A98DBA8D1C96ED91FC911D97EE0DDE
:100BF000FF1D20813181428153810E94500BF501FC
:100C000060837183828393830F5F1F4FF4E0EF0E45
:100C1000F11C08151905E4F206C004151505DCF6EB
:100C2000AE0CBF1CD8CFBE016F5F7F4FCE010996BF
:100C30000E943604CE0101960E94B6044D855E8561
:100C40006B857C85CE0101960E940404C12CD12CB9
:100C500000E010E08F8598890817190714F5E980DE
:100C6000FA8017FD07C08F8198850817190714F4BB
:100C7000EC0CFD1CE985FA85EC0DFD1D6081718190
:100C800082819381EDA1FEA10995D7016D937D939A
:100C90008D939C9313970F5F1F4FB4E0CB0ED11C25
:100CA000D9CFCE0109960E94B604CE0141960E948A
:100CB000B604BE016F5F7F4FC1010E947204CE0176
:100CC00001960E94B604EB8DFC8D3196FC8FEB8F64
:100CD000298D3A8D2A5E3F4F3A8F298F85CEC101EB
:100CE000E0960FB6F894DEBF0FBECDBFDF91CF9177
:100CF0001F910F91FF90EF90DF90CF90BF90AF903A
:100D00009F908F907F906F905F904F903F902F902B
:100D100008951F920F920FB60F9211242F933F93B5
:100D20004F935F936F937F938F939F93AF93BF93F3
:100D3000EF93FF9389E291E00E947101FF91EF919F
:100D4000BF91AF919F918F917F916F915F914F91E3
:100D50003F912F910F900FBE0F901F9018951F92EB
:100D60000F920FB60F9211242F938F939F93EF93AF
:100D7000FF93E0913901F0913A018081E0913F01C8
:100D8000F091400182FD12C09081809142018F5FFD
:100D90008F7320914301821751F0E0914201F0E0FE
:100DA000E75DFE4F958F8093420101C08081FF91E6
:100DB000EF919F918F912F910F900FBE0F901F90E9
:100DC00018951F920F920FB60F9211242F933F93F5
:100DD0008F939F93AF93BF938091250190912601AC
:100DE000A0912701B09128013091240123E0230F25
:100DF0002D3720F40196A11DB11D05C026E8230F53
:100E00000296A11DB11D209324018093250190938A
:100E10002601A0932701B093280180912001909191
:100E20002101A0912201B09123010196A11DB11DC4
:100E30008093200190932101A0932201B09323017C
:100E4000BF91AF919F918F913F912F910F900FBEC6
:100E50000F901F901895CF93DF93CDB7DEB7C6558F
:100E6000D1090FB6F894DEBF0FBECDBF789484B51C
:100E7000826084BD84B5816084BD85B5826085BD96
:100E800085B5816085BD80916E00816080936E0024
:100E90001092810080918100826080938100809116
:100EA00081008160809381008091800081608093C7
:100EB00080008091B10084608093B1008091B00087
:100EC00081608093B00080917A00846080937A0082
:100ED00080917A00826080937A0080917A008160AC
:100EE00080937A0080917A00806880937A001092D3
:100EF000C100E0913901F0913A0182E08083E091F4
:100F00003501F09136011082E0913701F0913801FE
:100F10008FEC808310924101E0913D01F0913E0100
:100F200086E08083E0913B01F0913C01808180610B
:100F30008083E0913B01F0913C0180818860808357
:100F4000E0913B01F0913C01808180688083E091D9
:100F50003B01F0913C0180818F7D808380ED97E0A3
:100F6000A0E0B0E080932D0190932E01A0932F017B
:100F7000B0933001EDECF0E02491E9EBF0E08491E6
:100F8000882399F090E0880F991FFC01E859FF4FE2
:100F9000A591B491FC01EE55FF4F859194918FB7C7
:100FA000F894EC91E22BEC938FBF89E291E00E94E0
:100FB0005B01181619060CF033C10E9499020E94B9
:100FC0002E031C821B821A8219821E821D821C869D
:100FD0001B861A86198618861F821E861D861C8A05
:100FE0001B8A1A8A198A188A1F861A8E198E188ED9
:100FF0001F8A1C8E1B8E1AA219A218A21F8E1E8E6B
:101000001D8E1CA21BA21AA619A618A61FA21EA2FC
:101010001DA282E090E09EA78DA718AA1FA692E0CD
:10102000E92EF12C21EEC22E20E0D22E36E1B32E95
:10103000CE01815B9F4F0E94690380E890E00E948F
:101040000803CE01895B9F4F0E94690382E790E00D
:101050000E9408031CAA1BAA1AAA19AA1EAA1DAA42
:101060001CAE1BAE1AAE19AE18AE1FAA1EAE1DAE38
:1010700025961FAE1EAE259723961FAE1EAE239754
:1010800021961FAE1EAE2197BE01615B7F4FCE0140
:10109000C5960E947204BE01695B7F4FCE01CD965A
:1010A0000E9472042796DFAECEAE279789AD9AAD27
:1010B0002FA938AD3AAB29AB9CAB8BABCE01895B8A
:1010C0009F4F0E94B604CE01815B9F4F0E94B604E1
:1010D0008FA598A92DA53EA582179307C4F59C015D
:1010E0002F5F3F4F38AB2FA7B89E8001B99E100DE0
:1010F0001124C8010496BE016B5C7F4F21E030E0F3
:101100002C0F3D1F820F931F0E947204C8010C9682
:10111000BE01635C7F4F21E030E02C0F3D1F820F4A
:10112000931F0E947204E1E0F0E0EC0FFD1FE00F5E
:10113000F11F27968EAD9FAD2797958B848B808569
:101140009185268137813183208393838283CE01E9
:10115000CD960E94B604CE01C5960E94B604EA94CC
:10116000EF2821F0EE24E394F12C62CFCE01815BD5
:101170009F4F0E946903AE01415B5F4FBE016F5FED
:101180007F4FCE01895B9F4F0E94BE0481E990E0B2
:101190000E9408030E9499020E942E030E940502E9
:1011A0006B017C0108EE13E0AE01415B5F4FBE01B5
:1011B0006F5F7F4FCE01C1960E94BE04CE01C196E3
:1011C0000E94B6040150110979F70E9405026C19BA
:1011D0007D098E099F094AE00E94C70288E191E0DB
:1011E0000E94B5020E9499020E942E03CE01895BE3
:1011F0009F4F0E94B604CE01815B9F4F0E94B604B0
:10120000CE0183960E94B604CE014B960E94B6048E
:10121000CE010D960E94B604CE0105960E94B6043A
:101220000E94FB01C2CEE9E2F1E01382128288EE55
:1012300093E0A0E0B0E084839583A683B7838AE03F
:1012400091E09183808385EC90E09587848784EC9E
:1012500090E09787868780EC90E0918B808B81EC83
:1012600090E0938B828B82EC90E0958B848B86EC64
:1012700090E0978B868B118E128E138E148E0895AC
:10128000CF93DF938230910510F482E090E0E091FB
:10129000C801F091C90120E030E0C0E0D0E0309713
:1012A00011F14081518148175907C0F0481759077B
:1012B00061F482819381209719F09B838A832BC0EC
:1012C0009093C9018093C80126C02115310519F0FA
:1012D0004217530718F49A01BE01DF01EF010280A3
:1012E000F381E02DDCCF2115310509F1281B390BE5
:1012F0002430310590F412968D919C9113976115CD
:10130000710521F0FB019383828304C09093C9018E
:101310008093C801FD01329644C0FD01E20FF31F26
:1013200081939193225031092D933C933AC020919F
:10133000C6013091C701232B41F420910201309165
:1013400003013093C7012093C60120910001309121
:1013500001012115310541F42DB73EB7409104013B
:1013600050910501241B350BE091C601F091C70196
:10137000E217F307A0F42E1B3F0B2817390778F06C
:10138000AC014E5F5F4F2417350748F04E0F5F1FCB
:101390005093C7014093C6018193919302C0E0E04E
:1013A000F0E0CF01DF91CF9108950F931F93CF937A
:1013B000DF93009709F48CC0FC01329713821282EC
:1013C0000091C8011091C9010115110581F4208116
:1013D0003181820F931F2091C6013091C7012817D8
:1013E000390779F5F093C701E093C60171C0D801C0
:1013F00040E050E0AE17BF0750F412962D913C919B
:101400001397AD012115310509F1D901F3CF9D01E4
:10141000DA013383228360817181860F971F8217DF
:10142000930769F4EC0128813981260F371F2E5F5D
:101430003F4F318320838A819B8193838283452B15
:1014400029F4F093C901E093C80142C01396FC93BC
:10145000EE931297ED01499159919E01240F351F8A
:10146000E217F30771F480819181840F951F029632
:1014700011969C938E938281938113969C938E9365
:101480001297E0E0F0E0D80112968D919C911397AD
:10149000009719F0F8018C01F6CF8D919C9198017D
:1014A0002E5F3F4F820F931F2091C6013091C701DD
:1014B0002817390769F4309729F41092C90110925E
:1014C000C80102C0138212821093C7010093C601A3
:1014D000DF91CF911F910F910895990F0008550F3B
:1014E000AA0BE0E8FEEF16161706E807F907C0F0AA
:1014F00012161306E407F50798F0621B730B840BB2
:10150000950B39F40A2661F0232B242B252B21F48B
:1015100008950A2609F4A140A6958FEF811D811D2B
:1015200008950E94A40A0C94150B0E94070B38F032
:101530000E940E0B20F0952311F00C94FE0A0C94DF
:10154000040B11240C94490B0E94260B70F3959FF9
:10155000C1F3950F50E0551F629FF001729FBB27AA
:10156000F00DB11D639FAA27F00DB11DAA1F649F46
:101570006627B00DA11D661F829F2227B00DA11DF9
:10158000621F739FB00DA11D621F839FA00D611D7F
:10159000221F749F3327A00D611D231F849F600DA0
:1015A000211D822F762F6A2F11249F5750409AF0C9
:1015B000F1F088234AF0EE0FFF1FBB1F661F771F55
:1015C000881F91505040A9F79E3F510580F00C9420
:1015D000FE0A0C94490B5F3FE4F3983ED4F38695E2
:1015E00077956795B795F795E7959F5FC1F7FE2BC0
:1015F000880F911D9695879597F9089597F99F679C
:1016000080E870E060E008959FEF80EC089500248A
:101610000A941616170618060906089500240A9457
:1016200012161306140605060895092E0394000CDD
:1016300011F4882352F0BB0F40F4BF2B11F460FF6C
:1016400004C06F5F7F4F8F4F9F4F089557FD905895
:10165000440F551F59F05F3F71F04795880F97FB76
:10166000991F61F09F3F79F0879508951216130630
:101670001406551FF2CF4695F1DF08C0161617065F
:101680001806991FF1CF8695710561050894089594
:10169000E894BB2766277727CB0197F90895505820
:1016A000BB27AA270E94670B0C94150B0E94070BFF
:1016B00038F00E940E0B20F039F49F3F19F426F405
:1016C0000C94040B0EF4E095E7FB0C94FE0AE92F52
:1016D0000E94260B58F3BA17620773078407950711
:1016E00020F079F4A6F50C94480B0EF4E0950B2E3F
:1016F000BA2FA02D0B01B90190010C01CA01A00164
:101700001124FF27591B99F0593F50F4503E68F1BE
:101710001A16F040A22F232F342F4427585FF3CFFF
:10172000469537952795A795F0405395C9F77EF4D0
:101730001F16BA0B620B730B840BBAF09150A1F019
:10174000FF0FBB1F661F771F881FC2F70EC0BA0F9F
:10175000621F731F841F48F4879577956795B79527
:10176000F7959E3F08F0B0CF9395880F08F0992722
:10177000EE0F9795879508950E946D0A08F48FEFF4
:101780000895A1E21A2EAA1BBB1BFD010DC0AA1FC2
:10179000BB1FEE1FFF1FA217B307E407F50720F0DA
:1017A000A21BB30BE40BF50B661F771F881F991F55
:1017B0001A9469F760957095809590959B01AC019E
:1017C000BD01CF010895EE0FFF1F0590F491E02DAC
:1017D000099481E090E0F8940C94F70BFB01DC0194
:1017E00002C001900D9241505040D8F70895F894EE
:0217F000FFCF29
:1017F2000000CA018000000000009201FB002A01E3
:0C180200D9015B0139014D010D0A000005
:00000001FF
